:020000040800F2
:1000000020590020DD010008E5010008E701000893
:10001000E9010008EB010008ED0100080000000004
:100020000000000000000000000000004501000882
:10003000F10100080000000089010008F506000831
:10004000F7010008F7010008F7010008F7010008B0
:10005000F7010008F7010008F7010008F7010008A0
:10006000F7010008F7010008F7010008F701000890
:10007000F7010008F7010008F7010008F701000880
:10008000F7010008F7010008F7010008F701000870
:10009000F7010008F7010008F7010008F701000860
:1000A000F7010008F7010008F7010008F701000850
:1000B000F7010008F7010008F7010008F701000840
:1000C000F7010008F7010008F7010008F701000830
:1000D000F701000865070008F7010008F7010008AC
:1000E000F7010008F7010008F7010008F701000810
:1000F000F7010008F7010008F7010008F701000800
:10010000F7010008F7010008F7010008F7010008EF
:10011000F7010008F7010008F7010008F7010008DF
:10012000F7010008F7010008F7010008F7010008CF
:10013000DFF80CD000F0BAF800480047C5180008F6
:1001400020590020224B19680868B0E8F00F80F3AE
:100150000988BFF36F8F4FF0000080F311884EF0D5
:100160000D0E70470000000006480068006880F32C
:10017000088862B661B6BFF34F8FBFF36F8F00DFA1
:1001800000BF00BF08ED00E0EFF30980BFF36F8F01
:100190000F4B1A6820E9F00F106008B54FF05000BF
:1001A00080F31188BFF34F8FBFF36F8F02F0D6FD3E
:1001B0004FF0000080F31188BDE808401968086816
:1001C000B0E8F00F80F30988BFF36F8F704700BF6E
:1001D00044000020EFF30580704700000648804788
:1001E00006480047FEE7FEE7FEE7FEE7FEE7FEE71C
:1001F000FEE7FEE7FEE7FEE705070008310100081D
:1002000040EA01039B0703D009E008C9121F08C098
:10021000042AFAD203E011F8013B00F8013B521E18
:10022000F9D27047D2B201E000F8012B491EFBD28F
:1002300070470022F6E710B513460A4604461946F1
:10024000FFF7F0FF204610BD2DE9F05F05460020C6
:1002500092469B4688460646814640241BE0284637
:1002600041464746224600F042F853465A46C01AD5
:10027000914110D311461846224600F029F82D1A54
:1002800067EB01084F4622460120002100F020F8CC
:1002900017EB00094E41201EA4F10104DFDC4846A3
:1002A00031462A464346BDE8F09F0000064C074D04
:1002B00006E0E06840F0010394E807009847103436
:1002C000AC42F6D3FFF738FFE03A0008003B0008E5
:1002D000202A04DB203A00FA02F100207047914006
:1002E000C2F1200320FA03F3194390407047202AFB
:1002F00004DB203A21FA02F00021704721FA02F3D0
:10030000D040C2F1200291400843194670472DE9C0
:10031000F04102460025002600200023002400278B
:1003200091F803C00CF00F0591F803C00CF0100C0D
:10033000BCF1000F03D091F802C04CEA050591F81A
:1003400000C0BCF1000F31D0146800202BE04FF04A
:10035000010C0CFA00F3B1F800C00CEA03069E424F
:1003600020D183004FF00F0C0CFA03F7BC4305FAC1
:1003700003FC4CEA040491F803C0BCF1280F06D139
:100380004FF0010C0CFA00FCC2F814C00AE091F81E
:1003900003C0BCF1480F05D14FF0010C0CFA00FC72
:1003A000C2F810C0401C0828D1D31460B1F800C0B6
:1003B000BCF1FF0F34DD546800202EE000F1080C82
:1003C0004FF0010808FA0CF3B1F800C00CEA03067C
:1003D0009E4221D183004FF00F0C0CFA03F7BC436F
:1003E00005FA03FC4CEA040491F803C0BCF1280FA1
:1003F00005D100F1080C08FA0CF8C2F8148091F845
:1004000003C0BCF1480F07D100F1080C4FF0010800
:1004100008FA0CF8C2F81080401C0828CED35460AB
:10042000BDE8F081416170470161704770B50021FE
:1004300000230F22C47804B3154C246804F4E0644C
:10044000C4F5E064210AC1F10403CA40447804FA07
:1004500003F184781440214309010E4C0678A1551C
:10046000047804F01F050124AC4005786D11AD003F
:1004700005F1E025C5F8004109E0047804F01F0506
:100480000124AC40044D0678761145F8264070BD35
:100490000CED00E000E400E080E100E002490143EF
:1004A000024A1160704700000000FA050CED00E000
:1004B00029B1064A12690243044B1A6104E0034A57
:1004C00012698243014B1A6170470000001002401C
:1004D00029B1064A92690243044B9A6104E0034A37
:1004E00092698243014B9A617047000000100240FC
:1004F00029B1064AD2680243044BDA6004E0034A99
:10050000D2688243014BDA6070470000001002405D
:1005100030B500210022002400232D4D6D6805F028
:100520000C0121B1042905D0082923D105E0294D6A
:10053000056022E0274D05601FE0254D6D6805F43C
:100540007012234D6D6805F48034022505EB92424C
:100550001CB9214D554305600BE01D4D6D6805F438
:1005600000351DB11C4D5543056002E0194D554342
:10057000056002E0174D056000BF00BF144D6D68B7
:1005800005F0F0010909154D6B5C0568DD4045601B
:100590000F4D6D6805F4E061090A104D6B5C45680C
:1005A000DD4085600A4D6D6805F46051C90A0B4D48
:1005B0006B5C4568DD40C560054D6D6805F44041E4
:1005C000890B074D6B5CC568B5FBF3F5056130BD64
:1005D0000010024000127A0000093D001A000020BD
:1005E0002A00002010B500F001F810BD0CB5002065
:1005F000019000903348006840F480303149086031
:1006000000BF3048006800F4003000900198401CA2
:100610000190009818B90198B0F5A06FF1D1294860
:10062000006800F4003010B10120009001E00020CB
:1006300000900098012843D12348006840F0100042
:10064000214908600846006820F003000860084659
:10065000006840F0020008601A4840681949486084
:100660000846406848600846406840F4806048603A
:100670000846406820F47C1048600846406840F412
:10068000E81048600846006840F08070086000BFCD
:100690000C48006800F000700028F9D00948406854
:1006A00020F00300074948600846406840F0020017
:1006B000486000BF0348406800F00C000828F9D1EA
:1006C0000CBD00000010024000200240042808D1A8
:1006D0004FF0E021096941F004014FF0E02211617F
:1006E00007E04FF0E021096921F004014FF0E0221A
:1006F0001161704710B502F04FFF012801D002F0E0
:10070000D1FB10BD10B51348006840F0010011493D
:10071000086008464068104908400E49486008468D
:1007200000680E4908400B4908600846006820F43C
:10073000802008600846406820F4FE0048604FF4BE
:100740001F008860FFF74EFF4FF00060044908600B
:1007500010BD0000001002400000FFF8FFFFF6FE91
:1007600008ED00E010B540F225511D4800F0F9F801
:1007700010B31B4800F0B0F9C4B21A48008800F466
:100780000040C8B91748008800F4804060B10A2CC6
:1007900003D000201349088020E01248008840F46C
:1007A00000401049088019E00D2C06D10D48008842
:1007B00040F480400B49088010E00A480088C0F3EC
:1007C0000D0009490C5407480088401C0549088061
:1007D00008460088C72801DD0020088010BD000001
:1007E00000380140180000200C01002010B586B030
:1007F0000446012144F20400FFF76AFE234800F09A
:1008000055F84FF40070ADF8140003208DF8160071
:1008100018208DF8170005A91D48FFF778FD4FF443
:100820008060ADF8140004208DF8170005A9184861
:10083000FFF76DFD01940020ADF80800ADF80A0047
:10084000ADF80C00ADF810000C20ADF80E0001A9B9
:100850000E4800F0D5F825208DF8000003208DF813
:1008600001008DF8020001208DF803006846FFF7B3
:10087000DDFD012240F22551044800F09CF80121E1
:10088000024800F007F806B010BD00000038014033
:100890000008014021B1828942F40052828104E0C3
:1008A00082894DF6FF731A408281704710B5044665
:1008B0002048844209D101218803FFF719FE002155
:1008C0004FF48040FFF714FE32E01B48844209D108
:1008D00001214804FFF7ECFD00214FF40030FFF741
:1008E000E7FD25E01548844209D101218804FFF77E
:1008F000DFFD00214FF48020FFF7DAFD18E01048FB
:10090000844209D10121C804FFF7D2FD00214FF430
:100910000020FFF7CDFD0BE00A48844208D10121F9
:100920000805FFF7C5FD00214FF48010FFF7C0FD5B
:1009300010BD000000380140004400400048004065
:10094000004C00400050004002460020B1F5007FFE
:1009500000D100BF13880B400BB1012000E0002044
:10096000704770B50246002400230025002040F6A1
:100970006A16B14200D100BFC1F3421501F01F0356
:10098000012606FA03F3012D02D19689334006E0D1
:10099000022D02D1168A334001E0968A33400C12B0
:1009A000012606FA04F41688344013B10CB1012074
:1009B00000E0002070BDF0B50346002400260025AD
:1009C000002040F66A17B94200D100BF1846C1F3B3
:1009D000421401F01F06012707FA06F5012C01D188
:1009E0000C3004E0022C01D1103000E014301AB1B8
:1009F00007682F43076002E00768AF430760F0BD58
:100A00002DE9F04786B005460E460024A24600BFF9
:100A1000A1460027B08900B100BF2F462C8A4CF6B2
:100A2000FF700440F08804432C82AC894EF6F3102A
:100A30000440B08831890843718908430443AC817C
:100A4000AC8A4FF6FF400440B0890443AC8201A851
:100A5000FFF75EFD1F48874202D1DDF810A001E0DC
:100A6000DDF80CA0A88900F4004040B10AEBCA00F0
:100A700000EB0A1031684900B0FBF1F807E00AEB1F
:100A8000CA0000EB0A1031688900B0FBF1F864205D
:100A9000B8FBF0F004012009642101FB1089A8894A
:100AA00000F4004040B1322000EBC900B0FBF1F08F
:100AB00000F00700044308E0322000EB0910642135
:100AC000B0FBF1F000F00F0004432C8106B0BDE84C
:100AD000F08700000038014001468888C0F3080014
:100AE0007047C1F308028280704700000FB4054BC5
:100AF00010B503A9044A029800F018F810BC5DF87C
:100B000014FB00003D0F00081400002002E008C89C
:100B1000121F08C1002AFAD170477047002001E077
:100B200001C1121F002AFBD1704700002DE9FF4FC1
:100B30008DB09B460F460446002606E025280BD0C4
:100B40005A460F999047641C761C20780028F5D1EE
:100B500011B03046BDE8F08F0025A8460122984923
:100B600000E0054314F8013F203B02FA03F008427D
:100B7000F7D120782E2817D114F8010F45F004057D
:100B80002A280ED06FF02F022078A0F13001092919
:100B90000AD808EB880102EB410100EB0108641C54
:100BA000F2E757F8048B641C20786C280DD004DC25
:100BB0004C2812D06A2811D104E074280DD07A286C
:100BC0000CD10AE045F4001507E0617845F4801582
:100BD000814202D1641C05F58015641C2278692AC3
:100BE00045D008DC002AB3D0582A69D0632A10D037
:100BF000642A08D13BE0702A67D0732A13D0752A83
:100C00005CD0782A5CD010465A460F999047761CE3
:100C1000D3E017F8040B8DF8000000208DF80100D8
:100C2000E946012003E057F8049B4FF0FF306907C5
:100C30004FF0000501D40AE06D1C45450DDA8542F0
:100C4000FADB19F805100029F6D106E06D1C854283
:100C5000FCDB19F805100029F8D12E4404E019F83E
:100C6000010B5A460F9990476D1EF8D2A5E00A2055
:100C70000021CDE90801C5F3025002280DD001CFB3
:100C8000C117031E71F100030DDA4FF0000CD0EB19
:100C90000C006CEB01012D2308E0FF1D27F0070776
:100CA000F7E80201EDE72B0504D52B238DF828305A
:100CB00001233BE0EB0739D02023F7E70A2000E0CF
:100CC00010200021CDE9080107E01020002145F0A7
:100CD0000405CDE908014FF00808C5F302500228C9
:100CE0000FD001CF00214FF0000A2B071FD5702A2B
:100CF0000DD0DDE908C38CF0100C5CEA030C0CD0BD
:100D000015E0FF1D27F00707F7E80201EBE7402297
:100D10008DF828204FF0010A0BE050EA010306D0BD
:100D200030238DF828308DF8292002239A46582A3E
:100D300004D024A20DF120090B9209E026A2F9E7C4
:100D4000DDE90823FFF780FA0B9B9B5C09F8013D66
:100D500050EA0102F4D1ADEB090020300890680799
:100D600001D44FF001080899884502DDA8EB010085
:100D700000E000208046002506E00AA85A46405DB3
:100D80000F9990476D1C761C5545F6DB04E030202A
:100D90005A460F999047761CB8F10001A8F1010856
:100DA000F5DC05E019F8010B5A460F999047761CBF
:100DB0000899481E08900029F4DC641CC5E6000070
:100DC0000928010030313233343536373839616221
:100DD00063646566000000003031323334353637E5
:100DE00038394142434445460000000010B5042014
:100DF000FFF76CFC104800681049B0FBF1F0104997
:100E000008700D4800680F49B0FBF1F44FF47A7098
:100E1000444301200C4908804FF0E020006940F075
:100E200002004FF0E021086108464461006940F08B
:100E30000100086110BD00003000002040420F009A
:100E40001000002000127A001200002070B5044645
:100E500002F0A2FB012811D00C480088844206DB76
:100E60000A48008894FBF0F5284601F07DFD07480C
:100E7000008894FBF0F100FB114084B24FF47A71CA
:100E800004FB01F000F004F870BD00001200002027
:100E900070B5034600224FF0E02675690E4E367895
:100EA00003FB06F400BF4FF0E026B16910E04FF0FD
:100EB000E026B06988420BD0884202D20E1A324432
:100EC00002E02E1A0E4432440146A24200D300E052
:100ED000EDE700BF70BD00001000002018E00D48D5
:100EE00000F01CF8C4B2312C10D0322C0DD0332CB1
:100EF00006D0342C0BD10849342000F01FF806E04E
:100F00000549332000F01AF801E000E000BF00BFFF
:100F1000E5E70000B80000201400002010B50446EA
:100F200000BF20210448FFF70FFD0028F9D0024838
:100F3000FFF7D2FD10BD00000038014070B5044637
:100F40000D4600BF40210548FFF7FEFC0028F9D000
:100F5000E1B20248FFF7C5FD204670BD00380140F0
:100F600008B501211020FFF7B3FAFF20ADF800000B
:100F700010208DF8030003208DF802006946064812
:100F8000FFF7C5F9FF210448FFF74EFA0221024896
:100F9000FFF748FA08BD000000100140544801F076
:100FA00041FB544801F04BFB534801F048FB5348C8
:100FB00001F045FB28204F4908603C204E4908605D
:100FC00032204E4908604EA0FFF790FD5BA0FFF76E
:100FD0008DFD474966A0FFF789FD4548816870A0EF
:100FE000FFF784FD4248416879A0FFF77FFD404943
:100FF000083183A0FFF77AFD3E498DA0FFF776FD0B
:101000003D4997A0FFF772FD3C49A1A0FFF76EFD97
:10101000ABA0FFF76BFDB9A0FFF768FD02E00A2067
:10102000FFF714FFBB48FFF779FF6928F7D0BA49EB
:101030006920FFF783FF2F492D4801F003FBB7A07C
:10104000FFF754FD3DA0FFF751FD2948C168C2A03C
:10105000FFF74CFD27484168CBA0FFF747FDD6A01E
:10106000FFF744FD22480169E2A0FFF73FFD214858
:101070008168ECA0FFF73AFD91A0FFF737FDF5A0DE
:10108000FFF734FD02E00A20FFF7E0FEA148FFF77A
:1010900045FF6A28F7D0A0496A20FFF74FFF16499D
:1010A000134801F0CFFAF1A0FFF720FD23A0FFF7CE
:1010B0001DFD0F48C168A8A0FFF718FD0D48416845
:1010C000B1A0FFF713FD0C484168F7A0FFF70EFD34
:1010D000B9A0FFF70BFD06480169C6A0FFF706FDA2
:1010E00004488168CFA0FFF701FD03488168F3E160
:1010F000BC000020D0000020E4000020F800002008
:101100002F2A2A2A2A2A2A2A2A2A2A2A2A2A2A2A3A
:101110002A2A2A2AC1D0B1EDBACDC1D0B1EDCFEE85
:10112000B5D8D6B72A2A2A2A2A2A2A2A2A2A2A2AAD
:101130002A2A2A2A2A2A2A2F0D0A0000CFEEC4BF03
:10114000202020202020202020202020202020209F
:101150002020202020202020202020202020B5D842
:10116000D6B709090909202020200D0A0000000037
:10117000546573744C697374202020202020202033
:10118000202020202020202020202020202020205F
:10119000202025237809090909090D0A000000000B
:1011A000546573744C6973742D3E784C697374453F
:1011B0006E642E784974656D56616C7565202020CB
:1011C000202025237809090909090D0A00000000DB
:1011D000546573744C6973742D3E7078496E646500
:1011E00078202020202020202020202020202020A7
:1011F000202025237809090909090D0A00000000AB
:10120000546573744C6973742D3E784C69737445DE
:101210006E6420202020202020202020202020203C
:10122000202025237809090909090D0A000000007A
:101230004C6973744974656D312020202020202072
:10124000202020202020202020202020202020209E
:10125000202025237809090909090D0A000000004A
:101260004C6973744974656D322020202020202041
:10127000202020202020202020202020202020206E
:10128000202025237809090909090D0A000000001A
:101290004C6973744974656D332020202020202010
:1012A000202020202020202020202020202020203E
:1012B000202025237809090909090D0A00000000EA
:1012C0002F2A2A2A2A2A2A2A2A2A2A2A2A2A2A2A79
:1012D0002A2A2A2A2A2A2A2A2ABDE1CAF82A2A2AB6
:1012E0002A2A2A2A2A2A2A2A2A2A2A2A2A2A2A2A5E
:1012F0002A2A2A2A2A2A2A2F0D0A0000B0B4CFC28D
:101300004B45595F69BCFCBCCCD0F8210D0A0D0AD5
:101310000D0A0000B8000020140000202F2A2A2AFD
:101320002A2A2A2A2A2A2A2A2A2A2A2A2A2A2ACC7B
:10133000EDBCD3C1D0B1EDCFEE4C69737449746587
:101340006D312A2A2A2A2A2A2A2A2A2A2A2A2A2AB3
:101350002A2A2A2F0D0A0000546573744C6973748D
:101360002D3E784C697374456E642D3E70784E65E1
:1013700078742020202020202020252378090909A6
:1013800009090D0A000000004C6973744974656D09
:10139000312D3E70784E657874202020202020204A
:1013A0002020202020202020202025237809090922
:1013B00009090D0A000000002F2A2A2A2A2A2A2AAF
:1013C0002A2A2A2A2A2A2A2A2A2A2A2AC7B0BAF301
:1013D000CFF2C1ACBDD3B7D6B8EECFDF2A2A2A2AC6
:1013E0002A2A2A2A2A2A2A2A2A2A2A2A2A2A2A2A5D
:1013F0002F0D0A00546573744C6973742D3E784C3C
:10140000697374456E642D3E707850726576696FAD
:1014100075732020202025237809090909090D0A60
:10142000000000004C6973744974656D312D3E7085
:101430007850726576696F757320202020202020F7
:1014400020202020202025237809090909090D0AD8
:1014500000000000B0B4CFC24B45595F6ABCFCBC71
:10146000CCD0F8210D0A0D0A0D0A00002F2A2A2AD5
:101470002A2A2A2A2A2A2A2A2A2A2A2A2A2A2ACC2A
:10148000EDBCD3C1D0B1EDCFEE4C69737449746536
:101490006D322A2A2A2A2A2A2A2A2A2A2A2A2A2A61
:1014A0002A2A2A2F0D0A00004C6973744974656D4D
:1014B000322D3E70784E6578742020202020202028
:1014C0002020202020202020202025237809090901
:1014D00009090D0A000000007EA0FFF707FBAFF22C
:1014E0002020FFF703FB87A0FFF700FB02E00A20A4
:1014F000FFF7ACFC8948FFF711FD6B28F7D088494E
:101500006B20FFF71BFD8749874801F09BF887A0F8
:10151000FFF7ECFAAFF2DC30FFF7E8FA8248C16877
:10152000AFF2CC10FFF7E2FA8F484168AFF2A81093
:10153000FFF7DCFA7B4841688CA0FFF7D7FA9748A1
:101540004168AFF29C00FFF7D1FAAFF29410FFF7B9
:10155000CDFA75480169AFF26410FFF7C7FA824807
:101560008168AFF24010FFF7C1FA6E4881688CA025
:10157000FFF7BCFA8948816856A0FFF7B7FAAFF2C7
:10158000C020FFF7B3FA92A0FFF7B0FA02E00A20FA
:10159000FFF75CFC6148FFF7C1FC6C28F7D060499D
:1015A0006C20FFF7CBFC7D4801F028F88EA0FFF7F8
:1015B0009DFAAFF27840FFF799FA5B48C168AFF245
:1015C0006820FFF793FA68484168AFF24420FFF7BC
:1015D0008DFA5448416865A0FFF788FAAFF22820D9
:1015E000FFF784FA50480169AFF2F810FFF77EFA6E
:1015F0005D488168AFF2D410FFF778FA49488168F6
:1016000067A0FFF773FAAFF24830FFF76FFA85A0D3
:10161000FFF76CFA02E00A20FFF718FC3F48FFF7DB
:101620007DFC6D28F7D03E496D20FFF787FC3E48D2
:10163000406840683C49486058493B4801F01CF804
:101640007EA0FFF753FAAFF20C50FFF74FFA36487F
:101650004168AFF28440FFF749FA3348C168AFF2FE
:101660000830FFF743FA4D484168AFF2C410FFF766
:101670003DFA3D484168AFF2F020FFF737FA2948BC
:1016800041683AA0FFF732FAAFF2D420FFF72EFA02
:1016900025480169AFF2A420FFF728FA3F48816886
:1016A0000CA0FFF723FA30488168AFF28820FFF7DB
:1016B0001DFA1C4881683AA0FFF718FA6EA0FFF7E0
:1016C00015FA06E07CA0FFF711FA4FF47A7001F0EA
:1016D0004BF9F7E74C6973744974656D322D3E70B0
:1016E0007850726576696F75732020202020202045
:1016F00020202020202025237809090909090D0A26
:1017000000000000B0B4CFC24B45595F6BBCFCBCBD
:10171000CCD0F8210D0A0D0A0D0A0000B8000020F7
:1017200014000020F8000020BC0000202F2A2A2AE4
:101730002A2A2A2A2A2A2A2A2A2A2A2A2A2A2ACC67
:10174000EDBCD3C1D0B1EDCFEE4C69737449746573
:101750006D332A2A2A2A2A2A2A2A2A2A2A2A2A2A9D
:101760002A2A2A2F0D0A0000D00000204C69737429
:101770004974656D332D3E70784E65787420202055
:101780002020202020202020202020202020252351
:101790007809090909090D0A00000000E400002089
:1017A0004C6973744974656D332D3E707850726561
:1017B00076696F7573202020202020202020202093
:1017C000202025237809090909090D0A00000000D5
:1017D000B0B4CFC24B45595F6CBCFCBCCCD0F82137
:1017E0000D0A0D0A0D0A00002F2A2A2A2A2A2A2A5F
:1017F0002A2A2A2A2A2A2A2A2A2A2AC9BEB3FDC123
:10180000D0B1EDCFEE4C6973744974656D322A2AFC
:101810002A2A2A2A2A2A2A2A2A2A2A2A2A2A2A2F23
:101820000D0A0000B0B4CFC24B45595F6DBCFCBC83
:10183000CCD0F8210D0A0D0A0D0A00002F2A2A2A01
:101840002A2A2A2A2A2A2A2A2A2A2A2AD4DAC4A985
:10185000CEB2CCEDBCD3C1D0B1EDCFEE4C69737438
:101860004974656D322A2A2A2A2A2A2A2A2A2A2AE9
:101870002A2A2A2A2F0D0A002F2A2A2A2A2A2A2A25
:101880002A2A2A2A2A2A2A2A2A2A2A2A2A2A2A2AB8
:101890002ABDE1CAF82A2A2A2A2A2A2A2A2A2A2AF0
:1018A0002A2A2A2A2A2A2A2A2A2A2A2A2A2A2A2F93
:1018B0000D0A0D0A0D0A000048656C6C6F210D0AB7
:1018C000000000001CB54FF44070FEF7E7FD4FF438
:1018D000E130FEF78BFFFFF789FAFFF741FB07487E
:1018E000012100230A02CDE9001005A1074801F0FB
:1018F00023FE01F0D5F900201CBD000000000020EF
:1019000073746172745F7461736B000089250008E1
:101910002DE9F04105460E461C4807681C48006842
:10192000001D00F06BFE50B91948006890F82C10AB
:101930000120884017490968814316480160681CE6
:1019400038B936B112480168091D134800F094FEF9
:101950001AE07C190E4800684460BC4207D20C486B
:101960000168091D0D48006800F06CFE0CE0084895
:101970000168091D0A48006800F064FE0948006813
:10198000844201D207480460BDE8F081580000207D
:10199000440000205C000020E40400204C000020F3
:1019A000480000207400002010B5044600F070FECE
:1019B00024480068401C234908602348006840B957
:1019C000214804600846006801280DD100F0EEF9B6
:1019D0000AE01E48006838B91B480068C06AE16A1E
:1019E000884201D81848046019480068401C18490A
:1019F000086008460068606494F82C100120884054
:101A000014490968084313490860E16A01EB810140
:101A1000114A02EB8100211D00F02EFE00F07AFE3B
:101A20000A48006868B108480068C06AE16A8842EC
:101A300007D24FF0805009490860BFF34F8FBFF3C2
:101A40006F8F10BD54000020440000206000002073
:101A5000700000205C0000201402002004ED00E073
:101A600010B500F015FE10480068D0B90F4800F01E
:101A7000D9FD0F4800F0D6FD0C480E4908600C480F
:101A80000D49086000221021052001F025FA0649C1
:101A900008600846006820B108A10348006800F00B
:101AA00027FF00F037FE10BD88000020F80400205A
:101AB0000C0500208000002084000020546D72512D
:101AC0000000000070B523E001F040F91348006801
:101AD00008B9012000E00020054601F0E9FEBDB98B
:101AE00000F0D6FD0D48C068C468201D00F086FDDA
:101AF0000B480068401E0A4908600A480068401EFA
:101B00000849086000F006FE204600F060F800BFBB
:101B1000044800680028D7D170BD0000D004002020
:101B2000540000205000002070B504460D46206C83
:101B300070B1216CE0680844E0606168E068884248
:101B400001D32068E0602846226CE168FEF758FB6C
:101B500070BD2DE9F04104460F4615464FF00008D0
:101B6000A66B206C40B9206860BB606801F0DAFDAC
:101B700080460020606025E07DB93946226CA0686F
:101B8000FEF73EFB216CA0680844A060D4E9011078
:101B9000884217D32068A06014E03946226CE068C0
:101BA000FEF72EFB216CE068401AE0602168E068D7
:101BB000884203D2216C6068401AE060022D01D196
:101BC00006B1761E701CA0634046BDE8F08110B5DA
:101BD0000446206B00F0D4FD204600F0D1FD10BD7E
:101BE0000146084A126812680AB9012200E0002280
:101BF0000A600A6822B9034A1268D268106800E0D5
:101C0000002070478000002030B54FF4A0431748F3
:101C100000F007042CB1C01D20F00700134C041B7A
:101C20001B1B0246124C22600024114D6C60D01820
:101C3000083820F007000F4C206000240D4D2D685F
:101C40006C600C4D2D682C601146441A4C60094C98
:101C500024680C60084D4C682C60084D4C682C6062
:101C60004FF00044064D2C6030BD000020050020E0
:101C7000940000209C000020A4000020A000002070
:101C8000A800002000BFFFF71DFF064800680128DC
:101C9000F9D94FF0805004490860BFF34F8FBFF36C
:101CA0006F8FF0E71402002004ED00E02DE9F04111
:101CB00006460D4617469846069C0DB9246000E07E
:101CC0002760E66325640121204601F023FA84F8A9
:101CD00050800020A064BDE8F08100002DE9F05F95
:101CE00082460F4690469B460A9E0C9C4FEA88010E
:101CF000A522206BFEF796FAA8F10100216B01EBFB
:101D0000800929F0070909F0070008B9012000E05F
:101D1000002028B940F22B321BA120A0FEF7E6FEDE
:101D2000002507E0795D04F134004155785D00B984
:101D300002E06D1C102DF5D300BF0021432001559A
:101D4000202E00D31F26E662E66400202065201DB9
:101D500000F075FC04F1180000F071FC2461C6F17C
:101D60002000A06164620020606584F858005A4633
:101D70005146484600F0F6FB20600B9808B10B98DE
:101D80000460BDE8F09F00004672656552544F53F1
:101D90005C7461736B732E63000000004572726F98
:101DA000723A25732C25640D0A00000010B500243A
:101DB00007E004EB84010F4A02EB810000F032FCE3
:101DC000641C202CF5D30C4800F02CFC0B4800F0D0
:101DD00029FC0B4800F026FC0A4800F023FC0A48C6
:101DE00000F020FC044809490860044808490860DC
:101DF00010BD00001402002094040020A80400205C
:101E0000BC040020D0040020E4040020480000208E
:101E10004C00002010B50146164800E00068036839
:101E20008B42FBD30246436813448B4204D1436880
:101E30004C682344436001460A464B6813440468D7
:101E4000A34211D10C4C03682468A34208D04B680C
:101E50000468646823444B6003681B680B6005E0FA
:101E6000054B1B680B6001E003680B60884200D0E3
:101E7000016010BD940000209C0000202DE9F0417D
:101E800004460D4616461F464FF000086560246163
:101E9000B5420CD8F01BA169884202D34FF001086B
:101EA00011E0211D0948006800F0CCFB0BE0BE42A8
:101EB00004D2BD4202D34FF0010804E0211D0448C2
:101EC000006800F0BFFB4046BDE8F08184000020C0
:101ED0008000002070B5054600F0DAFBA86B08B959
:101EE000012400E0002400F015FC204670BD70B510
:101EF000054600F0CDFBA86BE96B884201D10124B7
:101F000000E0002400F006FC204670BD2DE9F341FE
:101F10000D460098846C00272CB940F6CE121AA109
:101F20001EA0FEF7E3FDA06BE16B884201D2012009
:101F300000E0002028B940F6CF1213A117A0FEF749
:101F4000D5FDA06BE16B88421BD294F945602A460F
:101F500069462046FFF7FDFD0746701C60B9606AC0
:101F600008B9012000E0002050B904F1240001F07C
:101F700045FC28B1012703E0701C40B284F84500FD
:101F800000BF3846BDE8FC814672656552544F5328
:101F90005C71756575652E63000000004572726F97
:101FA000723A25732C25640D0A000000F8B5054629
:101FB0000F4613480068C068C468201D00F01EFB6F
:101FC000E069012818D1A06941192B463A462046FC
:101FD000FFF754FF80B1002003462A4601460090D7
:101FE000204601F02DFD06462EB94FF4027205A1E0
:101FF00009A0FEF77BFD00BF2046616A8847F8BD57
:10200000800000204672656552544F535C74696DC0
:102010006572732E630000004572726F723A257309
:102020002C25640D0A000000F0B587B070E003981D
:1020300000280CDA04AE2EB940F2E7223AA13FA004
:10204000FEF754FDD6E90020B168904700BF039821
:1020500000285DDB059C606908B9012000E00020D4
:1020600010B9201D00F0CAFA02A800F0C5F8054614
:1020700003980A284AD2DFE800F00905072C2E450C
:1020800006082D2F00BF00BF00BF00BF0498A26943
:10209000811803462A462046FFF7F0FEC0B12046CD
:1020A000616A8847E069012812D1002000900498F5
:1020B000A169421800231946204601F0C1FC0746D9
:1020C0002FB940F2213218A11CA0FEF70FFD00BF6E
:1020D0001DE000BF1BE000BF0498A061A06908B12B
:1020E000012000E0002028B94FF44E720EA113A089
:1020F000FEF7FCFCA06941192B462A462046FFF753
:10210000BDFE04E0204600F03BFB00E000BF00BF46
:1021100000231A4603A90D48006800F017FF0028A5
:1021200085D107B0F0BD00004672656552544F532B
:102130005C74696D6572732E630000004572726F86
:10214000723A25732C25640D0A00000088000020D7
:10215000F8B505460C4600F0F9FD684600F04CF86D
:102160000646009820BB44B9B54206D801F0A0FB52
:1021700031462846FFF71AFF1CE03CB10E480068C4
:10218000006808B9012000E000200446A91B22468F
:102190000A48006800F0C2FB01F08AFB50B94FF01A
:1021A000805007490860BFF34F8FBFF36F8F01E086
:1021B00001F07EFBF8BD00008400002088000020B4
:1021C00004ED00E00A490968096809B9012100E045
:1021D000002121B14FF0FF31064A116006E00449A9
:1021E0000968C968C868034A4168116070470000FF
:1021F000480000207400002070B5044601F0DCF9AE
:10220000054607480068854204D200F00BF801201B
:10221000206001E00020206001480560284670BD74
:10222000900000202DE9F8432DE021480068C068A7
:1022300005681F480068C068C468201D00F0DEF90A
:102240002046616A8847E06901281CD1A0694619C7
:10225000AE4207D966602461211D1548006800F070
:10226000F1F910E0002003462A460146009020467E
:1022700001F0E6FB07462FB940F292320DA112A001
:10228000FEF734FC00BF0A480068006808B9012066
:1022900000E000200028C8D00548D0F800800E4893
:1022A0000068034908600C48C0F80080BDE8F88366
:1022B000800000204672656552544F535C74696D0E
:1022C0006572732E630000004572726F723A257357
:1022D0002C25640D0A000000840000200B480068D3
:1022E000401C08B9012000E0002020B9F42208A118
:1022F00011A0FEF7FBFB00BF502080F31188BFF355
:102300004F8FBFF36F8F00BF00BFFEE7AC00002010
:102310004672656552544F535C706F727461626CA3
:10232000655C525644535C41524D5F434D335C7083
:102330006F72742E630000004572726F723A2573DB
:102340002C25640D0A00000008B500BF6846FFF7A1
:1023500047FC044620460099FFF7FAFEFFF764FEAB
:10236000F4E770B5044600F093F994F945501AE08B
:10237000A06C38B100212046FFF7C8FD88B100F0FD
:10238000B3FB0EE0606A08B9012000E0002038B914
:1023900004F1240001F032FA18B100F0A5FB00E0CE
:1023A00003E0681E45B2002DE2DC00BFFF2084F888
:1023B000450000F0AFF900F06BF994F9445010E0DB
:1023C000206908B9012000E0002048B904F110009C
:1023D00001F014FA08B100F087FB681E45B200E076
:1023E00001E0002DECDC00BFFF2084F8440000F089
:1023F00091F970BD2DE9F04104464FF0000800F05E
:10240000A5FC3E48006808B9FFF7FEFB3C480068A1
:10241000204000285FD1A4B1083404F0070080B147
:1024200004F00700C0F10800044404F0070008B9F4
:10243000012000E0002020B9BF2232A13AA0FEF71F
:1024400055FB002C47D03C480068844243D83B4EA3
:102450003046056801E02E462D686868A04202D229
:1024600028680028F7D125480068854233D03068B5
:1024700000F10808286830606868001B102813D92C
:102480002F1907F0070008B9012000E0002020B94B
:10249000EC221CA124A0FEF729FB6868001B7860D1
:1024A0006C603846FFF7B6FC234968680968081A6B
:1024B000214908600846006821490968884203D21A
:1024C0001D4800681E4908600D496868096808438E
:1024D00068600020286001F0EBF908F0070008B9F7
:1024E000012000E0002028B94FF4967205A10EA04B
:1024F000FEF7FCFA4046BDE8F08100009C00002099
:10250000A80000204672656552544F535C706F728C
:102510007461626C655C4D656D4D616E675C68658C
:1025200061705F342E6300004572726F723A2573DA
:102530002C25640D0A000000A0000020940000205B
:10254000A40000200648006830B10549096801F17F
:102550005000096D491C0160014800687047000087
:1025600044000020001F4FF080730360001F21F023
:1025700001030360001F034B03601438026020381E
:1025800070470000DD2200081CB5044600F080F80A
:102590000F4802210023CA01CDE900100DA1104807
:1025A00000F0CAFF0F48032100238022CDE900106C
:1025B0000DA1104800F0C0FF0F48006800F00EFAAF
:1025C0000D48006800F00AFA00F0A4F81CBD0000F5
:1025D000040000206563686F5F7461736B00000026
:1025E000DD0E00080C0000206C6973745F74617369
:1025F0006B0000009D0F00080000002001460A69E2
:10260000D1E901309860D1E90103586050688842EF
:1026100001D188685060002008611068401E106079
:102620001068704700F1080141604FF0FF31816090
:1026300000F10801C16001610021016070470021C3
:102640000161704710B502460B685C1C0CB910693B
:1026500007E002F1080000E04068446824689C42FA
:10266000FAD944684C604C68A160886041600A6196
:102670001468641C146010BD42684A6093688B60E3
:10268000936859609160086103685B1C0360704740
:1026900010B500BF502080F31188BFF34F8FBFF3F8
:1026A0006F8F00BF0B480068401C0A49086008464D
:1026B000006801280DD108480068C0B208B901209F
:1026C00000E0002028B94FF4BD7204A10DA0FEF770
:1026D0000DFA10BDAC00002004ED00E04672656507
:1026E00052544F535C706F727461626C655C5256E9
:1026F00044535C41524D5F434D335C706F72742E96
:10270000630000004572726F723A25732C25640DC8
:102710000A00000010B50B48006828B940F2811289
:1027200009A113A0FEF7E2F906480068401E05491A
:1027300008600846006820B9002080F3118800BFB7
:1027400000BF10BDAC0000204672656552544F5367
:102750005C706F727461626C655C525644535C418C
:10276000524D5F434D335C706F72742E63000000F6
:102770004572726F723A25732C25640D0A000000B1
:1027800070B506463546002E35D0083D2C461A4910
:1027900060680968084008B1012000E0002028B9FD
:1027A0004FF4A07215A11EA0FEF7A0F9206808B989
:1027B000012000E0002028B940F241120FA118A02A
:1027C000FEF794F90C4960680968084098B12068E0
:1027D00088B90949606809688843606000F0B6FA02
:1027E0001349606809680844114908602046FFF7EA
:1027F00011FB01F05DF870BDA80000204672656510
:1028000052544F535C706F727461626C655C4D65BD
:102810006D4D616E675C686561705F342E630000AA
:102820004572726F723A25732C25640D0A00000000
:10283000A0000020064800684FF47A71B0FBF1F068
:10284000401E4FF0E02148610720086170470000FA
:102850003000002070B5FDF7BDFC0546102D11D3EA
:1028600005F1E02090F8F04310480078844201DB45
:10287000012000E0002028B94FF42A720CA116A014
:10288000FEF734F91848006800F4E0601749096859
:10289000884201D8012000E0002028B94FF42E72B0
:1028A00003A10DA0FEF722F970BD0000B0000020CA
:1028B0004672656552544F535C706F727461626CFE
:1028C000655C525644535C41524D5F434D335C70DE
:1028D0006F72742E630000004572726F723A257336
:1028E0002C25640D0A0000000CED00E0B40000206F
:1028F000024600200BE0084B53F8303033B9064B4A
:1029000043F8301003EBC0035A6002E0401C082873
:10291000F1D300BF70470000D40100202DE9F04141
:1029200005460E4617462C46FFF7B2FE94F94400C2
:10293000401C10B9002084F8440094F94500401C64
:1029400010B9002084F84500FFF7E4FEA06B28B919
:102950003A46314604F1240000F0F6F82046FFF72D
:1029600000FDBDE8F081000070B504460025ACB163
:102970000F48006808B9012000E0002028B940F2A3
:10298000CF420CA110A0FEF7B1F800F0DFF9002152
:102990002046FEF7BDFF00F08BFF05463DB94FF026
:1029A00080500D490860BFF34F8FBFF36F8F70BD2C
:1029B0007C0000204672656552544F535C7461730D
:1029C0006B732E63000000004572726F723A2573BC
:1029D0002C25640D0A00000004ED00E070B50546EA
:1029E000FFF756FE15B92D48006800E0284604465A
:1029F000201DFFF703FE78B9E06A00EB800028494C
:102A000051F8200040B994F82C1001208840254945
:102A10000968814323480160A06A18B104F11800D5
:102A2000FFF7ECFD20480068401C1F4908601B4868
:102A30000068844209D1211D1C48FFF71DFE1C4877
:102A40000068401C1A49086009E01A480068401EE6
:102A5000184908602046FFF7BAF8FFF7B3FBFFF705
:102A600059FE15480068C0B10C480068844214D172
:102A70001248006808B9012000E0002028B940F29F
:102A800065420FA113A0FEF731F84FF080501549B1
:102A90000860BFF34F8FBFF36F8F70BD44000020FD
:102AA000140200205C00002070000020D0040020F0
:102AB0005000002054000020600000207C00002016
:102AC0004672656552544F535C7461736B732E6329
:102AD000000000004572726F723A25732C25640D58
:102AE0000A00000004ED00E0012001490860704781
:102AF0006800002070B504460D462CB940F6063239
:102B000007A10CA0FDF7F2FF0E480168183120461E
:102B1000FFF798FD01212846FEF7FAFE70BD000080
:102B20004672656552544F535C7461736B732E63C8
:102B3000000000004572726F723A25732C25640DF7
:102B40000A0000004400002070B505460E461446F9
:102B50002DB940F6313209A10DA0FDF7C7FF10488D
:102B6000016818312846FFF787FD0CB14FF0FF369A
:102B700021463046FEF7CCFE70BD0000467265650A
:102B800052544F535C7461736B732E6300000000EA
:102B90004572726F723A25732C25640D0A0000008D
:102BA0004400002070B505462C46002D4BD0264928
:102BB000E06A0968C96A884245D2A06900F000400D
:102BC00028B921480068C06AC0F12000A061E16A0C
:102BD00001EB81011D4A02EB81016069884201D14C
:102BE000012000E0002050B3201DFFF707FD78B959
:102BF000E06A00EB8000154951F8200040B994F8D4
:102C00002C10012088401249096881431048016056
:102C10000D480068C06AE06294F82C1001208840DA
:102C20000B49096808430A490860E16A01EB810120
:102C3000064A02EB8100211DFFF71EFD03E002485A
:102C40000068C06AE06270BD4400002014020020E9
:102C50005C00002010B504462CB940F6C13205A135
:102C600009A0FDF743FF0C48006820600B4800688E
:102C7000606010BD4672656552544F535C74617359
:102C80006B732E63000000004572726F723A2573F9
:102C90002C25640D0A0000006C0000205800002064
:102CA0001CB51A4800210B468222CDE9001018A15C
:102CB000194800F041FC0446012C02D100F088FEC6
:102CC0000446012C15D100BF502080F31188BFF3BA
:102CD0004F8FBFF36F8F00BF4FF0FF300F49086079
:102CE00001200F49086000200E49086000F08AF8B2
:102CF0000BE0601C08B1012000E0002028B940F280
:102D0000847209A10DA0FDF7F1FE1CBD7800002022
:102D100049444C4500000000851C00087400002058
:102D200060000020580000204672656552544F53E1
:102D30005C7461736B732E63000000004572726FE8
:102D4000723A25732C25640D0A00000002480068C1
:102D5000401C0149086070477C00002010B51B48EA
:102D6000006818B101201A4908602DE000201849B8
:102D7000086018480068B0FA80F0C0F11F0404EB46
:102D80008400154951F8200008B1012000E000201E
:102D900028B940F6F62211A115A0FDF7A7FE04EB15
:102DA00084010D4A02EB810041684968416000F1ED
:102DB000080142688A4202D141684968416041681D
:102DC000C9680F4A116000BF10BD00007C000020E0
:102DD000680000205C000020140200204672656537
:102DE00052544F535C7461736B732E630000000088
:102DF0004572726F723A25732C25640D0A0000002B
:102E0000440000201CB52248014609780191FF21A9
:102E1000024611700146097800919DF8001001F0FA
:102E200050011C4A117007211B4A116009E01A4920
:102E30000968491E184A11609DF800104906090EDC
:102E400000919DF8001001F080018029EFD0124917
:102E500009680902104A11601146098801F4E0610D
:102E600011600B4A019911700C48006840F4700021
:102E70000A4908600846006840F070400860FFF7A3
:102E8000D9FC002006490860FDF76EF900201CBD42
:102E900000E400E0B0000020B400002020ED00E0DD
:102EA000AC00002010B500BF502080F31188BFF3A4
:102EB0004F8FBFF36F8F00BF00F084FB18B14FF04E
:102EC00080500449086000BF002080F3118800BFD3
:102ED00010BD000004ED00E02DE9F84305460E4664
:102EE00090460DB1012000E0002028B94FF4C472D3
:102EF0000DA112A0FDF7FAFD0EB9002701E005FBB8
:102F000006F707F15400FFF775FA044644B104F1DF
:102F1000540943464A46314628460094FEF7C6FE09
:102F20002046BDE8F88300004672656552544F5351
:102F30005C71756575652E63000000004572726FE7
:102F4000723A25732C25640D0A0000002DE9FF4715
:102F500082B005460E461F464FF0000A2C462CB99B
:102F600040F2DC4261A166A0FDF7C0FD0EB9206C05
:102F700008B9012000E0002028B940F2DD425BA141
:102F80005FA0FDF7B3FD00F007FB08B9049808B98E
:102F9000012000E0002028B94FF49C6253A158A002
:102FA000FDF7A4FD00BFFFF773FBD4F83890B9F12B
:102FB000000F3DD0D4F80C8031462046FEF7B4FD1A
:102FC000DFB9A9F10100A063206810B9FFF7BAFAD0
:102FD0006060206908B9012000E0002010BB04F106
:102FE000100000F00BFCE8B14FF080504849086039
:102FF000BFF34F8FBFF36F8F14E0C4F80C80606A8B
:1030000008B9012000E0002060B904F1240000F0BC
:10301000F5FB38B14FF080503D490860BFF34F8F4A
:10302000BFF36F8FFFF776FB012006B0BDE8F08796
:10303000049818B9FFF76EFB0020F6E7BAF1000F0D
:1030400004D16846FFF706FE4FF0010AFFF762FB66
:10305000FFF77CFEFFF71CFB94F94400401C10B9FD
:10306000002084F8440094F94500401C10B9002069
:1030700084F84500FFF74EFB04A9684600F00CFAFF
:1030800040BB2046FEF726FFF0B1206830B9FFF7BD
:10309000FFFA6068FFF786FDFFF73CFB04F12400B0
:1030A0000499FFF727FD2046FFF75BF900F000FCCD
:1030B00000287FF478AF4FF0805015490860BFF3C7
:1030C0004F8FBFF36F8F6EE72046FFF74AF900F08E
:1030D000EFFB68E72046FFF744F900F0E9FB2046E4
:1030E000FEF7F8FE0028EED000209EE746726565E8
:1030F00052544F535C71756575652E630000000076
:103100004572726F723A25732C25640D0A00000017
:1031100004ED00E070B505460E462C462CB940F291
:103120001B121EA122A0FDF7E1FCFFF7B1FAD4E9C2
:103130000F12206801FB020060600020A06320687D
:10314000A060E06B401E226C216800FB0210E06072
:10315000FF2084F8440084F845009EB9206908B92E
:10316000012000E00020A8B904F1100000F046FBA7
:1031700080B14FF0805012490860BFF34F8FBFF30A
:103180006F8F07E004F11000FFF74CFA04F1240000
:10319000FFF748FAFFF7BEFA012070BD4672656579
:1031A00052544F535C71756575652E6300000000C5
:1031B0004572726F723A25732C25640D0A00000067
:1031C00004ED00E02DE9FF4383B0064688461D4626
:1031D0004FF0000934462CB940F2D92260A165A015
:1031E000FDF784FCB8F1000F01D1206C08B9012073
:1031F00000E0002028B940F2DA2259A15DA0FDF7D5
:1032000075FC022D02D1E06B012801D1012000E004
:10321000002028B940F2DB2251A156A0FDF766FC40
:1032200000F0BAF908B9059808B9012000E00020BB
:1032300028B940F2DE224AA14EA0FDF757FC00BF9C
:10324000FFF726FAA06BE16B884201D3022D38D13B
:103250002A4641462046FEF77CFC0746A06C68B132
:1032600029462046FEF752FE28B34FF080504549CC
:103270000860BFF34F8FBFF36F8F1CE0606A08B91F
:10328000012000E0002068B904F1240000F0B6FA43
:1032900088B14FF080503B490860BFF34F8FBFF3B8
:1032A0006F8F08E03FB14FF0805036490860BFF3A0
:1032B0004F8FBFF36F8FFFF72DFA012007B0BDE8E6
:1032C000F083059818B9FFF725FA0020F6E7B9F161
:1032D000000F04D101A8FFF7BDFC4FF00109FFF773
:1032E00019FAFFF733FDFFF7D3F994F94400401CB6
:1032F00010B9002084F8440094F94500401C10B92E
:10330000002084F84500FFF705FA05A901A800F0A0
:10331000C3F8F0B92046FEF7EAFDA0B104F11000B1
:103320000599FFF7E7FB2046FFF71BF800F0C0FA0E
:10333000002885D14FF0805012490860BFF34F8FAD
:10334000BFF36F8F7CE72046FFF70BF800F0B0FA71
:1033500076E72046FFF705F800F0AAFA0020ADE76F
:103360004672656552544F535C71756575652E6381
:10337000000000004572726F723A25732C25640DAF
:103380000A00000004ED00E02DE9F05F80468A4667
:1033900015461E4644462CB940F29F3235A13AA04C
:1033A000FDF7A4FBBAF1000F01D1206C08B9012090
:1033B00000E0002028B94FF468722EA132A0FDF77A
:1033C00095FB022E02D1E06B012801D1012000E023
:1033D000002028B940F2A13226A12BA0FDF786FBE0
:1033E000FFF738FA00BF5021EFF3118081F3118805
:1033F000BFF34F8FBFF36F8F00BF0746A06BE16B2A
:10340000884201D3022E2BD194F945B03246514661
:103410002046FEF79EFB0BF10100C8B9A06C40B13D
:1034200031462046FEF772FDB8B1B5B101202860E3
:1034300013E0606A08B9012000E0002068B904F1D7
:10344000240000F0DBF940B13DB10120286004E028
:103450000BF1010040B284F845004FF0010901E092
:103460004FF0000900BF87F3118800BF4846BDE850
:10347000F09F00004672656552544F535C7175654C
:1034800075652E63000000004572726F723A2573F5
:103490002C25640D0A0000002DE9F04104460D467C
:1034A0002CB940F6CB3219A11DA0FDF71FFB2DB999
:1034B00040F6CC3215A11AA0FDF718FBFFF7E8F88B
:1034C0001B4807682868401C08B9002619E01949FC
:1034D00020680968884204D06068B84201D8012693
:1034E0000FE06068381A2968884209D22868616844
:1034F000791A401A28602046FFF7ACFB002600E04E
:103500000126FFF707F93046BDE8F0814672656590
:1035100052544F535C7461736B732E630000000050
:103520004572726F723A25732C25640D0A000000F3
:10353000580000206C0000202DE9FF4F85B0804628
:1035400089461746DDE912ABB800FEF753FF064681
:1035500056B15C20FEF74EFF04460CB1266304E032
:103560003046FFF70DF900E000247CB10020CDE9E2
:1035700000ABCDE902403A4649464046089BFEF77B
:10358000ADFB2046FEF710FA012501E04FF0FF35B4
:10359000284609B0BDE8F08F0549096809B901203E
:1035A00005E00449096809B9022000E000207047DD
:1035B000600000207C00002001490868704700007E
:1035C000580000202DE9F0414FF000084148006804
:1035D000002872D140480068451C3F480560EDB99D
:1035E0003E480068006808B9012000E0002028B9C2
:1035F00040F6D9123AA13FA0FDF778FA374807689C
:1036000040480068354908603E4807603E48006809
:10361000401C3D490860FEF7D5FD00BF3B480068EF
:1036200085423CD300BF2D480068006808B90120DE
:1036300000E0002020B14FF0FF30344908602DE059
:1036400026480068C068C4686668B54202D22F4840
:10365000066023E0201DFEF7D1FFA06A18B104F137
:103660001800FEF7CBFF94F82C1001208840284961
:103670000968084326490860E16A01EB8101254A8F
:1036800002EB8100211DFEF7F7FF2349E06A09687C
:10369000C96A8842C7D34FF00108C4E700BF1E487B
:1036A0000068C06A00EB80001A4951F82000012828
:1036B00001D94FF0010805E0FFE718480068401CF9
:1036C000164908601648006808B14FF001084046E6
:1036D000BDE8F0817C000020580000204800002058
:1036E0004672656552544F535C7461736B732E63FD
:1036F000000000004572726F723A25732C25640D2C
:103700000A0000004C0000206C0000207400002023
:103710005C0000201402002044000020640000200F
:103720006800002070B505462C460026002D4BD0C1
:1037300026480068844201D1012000E0002028B919
:1037400040F6C76222A127A0FDF7D0F9206D28B965
:1037500040F6C9621EA123A0FDF7C8F9206D401EE6
:103760002065E16CE06A88422ED0206D60BB201D90
:10377000FEF744FF78B9E06A00EB80001D4951F87C
:10378000200040B994F82C10012088401A4909689B
:10379000814319480160E06CE062E06AC0F12000FA
:1037A000A06194F82C10012088401349096808434F
:1037B00011490860E16A01EB81010E4A02EB8100C8
:1037C000211DFEF759FF0126304670BD4400002040
:1037D0004672656552544F535C7461736B732E630C
:1037E000000000004572726F723A25732C25640D3B
:1037F0000A000000140200205C00002070B506469C
:10380000F068C4682CB940F661321AA11EA0FDF719
:103810006DF904F11800FEF7F1FE1F480068A8B921
:10382000201DFEF7EBFE94F82C10012088401B4968
:103830000968084319490860E16A01EB8101184AE7
:1038400002EB8100211DFEF717FF04E004F11801CF
:103850001448FEF711FF1449E06A0968C96A8842F2
:1038600004D9012501201149086000E000252846FF
:1038700070BD00004672656552544F535C746173AD
:103880006B732E63000000004572726F723A2573ED
:103890002C25640D0A0000007C0000205C00002044
:1038A00014020020BC040020440000206800002016
:1038B00070B5002400263448006828B94FF4FD6232
:1038C00032A137A0FDF712F9FEF7E2FE2E4800689C
:1038D000401E2D4908600846006800284FD1344832
:1038E000006800284BD024E03248C068C46804F166
:1038F0001800FEF783FE201DFEF780FE94F82C10C2
:10390000012088402C49096808432B490860E16A76
:1039100001EB8101294A02EB8100211DFEF7ACFE7B
:103920002749E06A0968C96A884202D3012025490B
:1039300008602048006808B9012000E00020002845
:10394000D2D00CB1FEF73EFC1F48056865B100BF40
:10395000FFF738FE10B101201A4908606D1E002DD6
:10396000F6D10020184908601648006838B10126D1
:10397000300716490860BFF34F8FBFF36F8FFEF714
:10398000C9FE304670BD00007C00002046726565AF
:1039900052544F535C7461736B732E6300000000CC
:1039A0004572726F723A25732C25640D0A0000006F
:1039B00054000020BC0400205C0000201402002001
:1039C00044000020680000206400002004ED00E0B6
:1039D0001CB50024FEF744F80B48006858B10B48AA
:1039E0001F2100234FF48272CDE9001008A10A487C
:1039F000FFF7A2FD04462CB940F2331207A10CA038
:103A0000FDF774F820461CBD880000208C000020C3
:103A1000546D722053766300492300084672656531
:103A200052544F535C74696D6572732E63000000CD
:103A30004572726F723A25732C25640D0A000000DE
:103A40002DE9FF4704460D4616461F46DDF8308037
:103A50004FF000092CB94FF4D37217A11BA0FDF74A
:103A600045F81E48006810B3009501960294062D93
:103A700015DAFFF791FD022808D100234246694676
:103A800016480068FFF79EFB814610E000231A46A7
:103A9000694612480068FFF795FB814607E000235E
:103AA0003A4669460D480068FFF76EFC8146484675
:103AB00004B0BDE8F08700004672656552544F536C
:103AC0005C74696D6572732E630000004572726FDD
:103AD000723A25732C25640D0A000000880000202E
:103AE000003B000800000020BC0000000C0B000898
:103AF000BC3B0008BC000020645800001C0B000800
:103B000000000000000000000000000000000000B5
:103B100000000000000000000000000000000102A2
:103B20000304010203040607080902040608000052
:103B300000A24A040000000000000000010203048B
:103B40000607080900000000000000000000000057
:103B50000000000000000000000000000000000065
:103B60000000000000000000000000000000000055
:103B70000000000000000000000000000000000045
:103B80000000000000000000000000000000000035
:103B90000000000000000000000000000000000025
:103BA000000000000000000000000000AAAAAAAA6D
:0C3BB00000000000000000000000000009
:0400000508000131BD
:00000001FF
